{
  "contractName": "Dating",
  "abi": [
    {
      "inputs": [],
      "stateMutability": "nonpayable",
      "type": "constructor"
    },
    {
      "inputs": [
        {
          "internalType": "address",
          "name": "",
          "type": "address"
        },
        {
          "internalType": "uint256",
          "name": "",
          "type": "uint256"
        }
      ],
      "name": "matchingMap",
      "outputs": [
        {
          "internalType": "address",
          "name": "",
          "type": "address"
        }
      ],
      "stateMutability": "view",
      "type": "function",
      "constant": true
    },
    {
      "inputs": [],
      "name": "numberOfUsers",
      "outputs": [
        {
          "internalType": "uint256",
          "name": "",
          "type": "uint256"
        }
      ],
      "stateMutability": "view",
      "type": "function",
      "constant": true
    },
    {
      "inputs": [],
      "name": "owner",
      "outputs": [
        {
          "internalType": "address",
          "name": "",
          "type": "address"
        }
      ],
      "stateMutability": "view",
      "type": "function",
      "constant": true
    },
    {
      "inputs": [
        {
          "internalType": "address",
          "name": "",
          "type": "address"
        }
      ],
      "name": "people",
      "outputs": [
        {
          "internalType": "string",
          "name": "decentralizedFileStorageLink",
          "type": "string"
        },
        {
          "internalType": "string",
          "name": "name",
          "type": "string"
        }
      ],
      "stateMutability": "view",
      "type": "function",
      "constant": true
    },
    {
      "inputs": [
        {
          "internalType": "uint256",
          "name": "",
          "type": "uint256"
        }
      ],
      "name": "users",
      "outputs": [
        {
          "internalType": "string",
          "name": "decentralizedFileStorageLink",
          "type": "string"
        },
        {
          "internalType": "string",
          "name": "name",
          "type": "string"
        }
      ],
      "stateMutability": "view",
      "type": "function",
      "constant": true
    },
    {
      "inputs": [
        {
          "internalType": "string",
          "name": "name",
          "type": "string"
        },
        {
          "internalType": "string",
          "name": "decentralizedFileStorageLink",
          "type": "string"
        }
      ],
      "name": "createProfile",
      "outputs": [
        {
          "internalType": "bool",
          "name": "_exists",
          "type": "bool"
        }
      ],
      "stateMutability": "nonpayable",
      "type": "function"
    },
    {
      "inputs": [
        {
          "internalType": "address",
          "name": "personLiked",
          "type": "address"
        }
      ],
      "name": "like",
      "outputs": [],
      "stateMutability": "nonpayable",
      "type": "function"
    },
    {
      "inputs": [],
      "name": "getUsers",
      "outputs": [
        {
          "components": [
            {
              "internalType": "string",
              "name": "decentralizedFileStorageLink",
              "type": "string"
            },
            {
              "internalType": "string",
              "name": "name",
              "type": "string"
            }
          ],
          "internalType": "struct Dating.Person[]",
          "name": "_users",
          "type": "tuple[]"
        }
      ],
      "stateMutability": "view",
      "type": "function",
      "constant": true
    }
  ],
  "bytecode": "0x60806040523480156200001157600080fd5b50336000806101000a81548173ffffffffffffffffffffffffffffffffffffffff021916908373ffffffffffffffffffffffffffffffffffffffff1602179055506000600260003373ffffffffffffffffffffffffffffffffffffffff1673ffffffffffffffffffffffffffffffffffffffff16815260200190815260200160002090506040518060400160405280600881526020017f697066732e636f6d000000000000000000000000000000000000000000000000815250816000019080519060200190620000e4929190620001c8565b506040518060400160405280600581526020017f416c69636500000000000000000000000000000000000000000000000000000081525081600101908051906020019062000134929190620001c8565b5060048190806001815401808255809150506001900390600052602060002090600202016000909190919091506000820181600001908054620001779062000377565b6200018492919062000259565b5060018201816001019080546200019b9062000377565b620001a892919062000259565b50505060018054620001bb919062000310565b600181905550506200040b565b828054620001d69062000377565b90600052602060002090601f016020900481019282620001fa576000855562000246565b82601f106200021557805160ff191683800117855562000246565b8280016001018555821562000246579182015b828111156200024557825182559160200191906001019062000228565b5b509050620002559190620002f1565b5090565b828054620002679062000377565b90600052602060002090601f0160209004810192826200028b5760008555620002de565b82601f106200029e5780548555620002de565b82800160010185558215620002de57600052602060002091601f016020900482015b82811115620002dd578254825591600101919060010190620002c0565b5b509050620002ed9190620002f1565b5090565b5b808211156200030c576000816000905550600101620002f2565b5090565b60006200031d826200036d565b91506200032a836200036d565b9250827fffffffffffffffffffffffffffffffffffffffffffffffffffffffffffffffff03821115620003625762000361620003ad565b5b828201905092915050565b6000819050919050565b600060028204905060018216806200039057607f821691505b60208210811415620003a757620003a6620003dc565b5b50919050565b7f4e487b7100000000000000000000000000000000000000000000000000000000600052601160045260246000fd5b7f4e487b7100000000000000000000000000000000000000000000000000000000600052602260045260246000fd5b611030806200041b6000396000f3fe608060405234801561001057600080fd5b50600436106100875760003560e01c80638da5cb5b1161005b5780638da5cb5b1461012a578063b81f2d5e14610148578063ba1feb8a14610178578063e465c465146101a857610087565b8062ce8e3e1461008c57806307de9735146100aa578063365b98b2146100db57806375ce46a71461010c575b600080fd5b6100946101c4565b6040516100a19190610cc6565b60405180910390f35b6100c460048036038101906100bf9190610a45565b610347565b6040516100d2929190610d03565b60405180910390f35b6100f560048036038101906100f09190610b16565b61047b565b604051610103929190610d03565b60405180910390f35b6101146105bf565b6040516101219190610d3a565b60405180910390f35b6101326105c5565b60405161013f9190610cab565b60405180910390f35b610162600480360381019061015d9190610a6e565b6105e9565b60405161016f9190610cab565b60405180910390f35b610192600480360381019061018d9190610aaa565b610637565b60405161019f9190610ce8565b60405180910390f35b6101c260048036038101906101bd9190610a45565b6107e0565b005b60606004805480602002602001604051908101604052809291908181526020016000905b8282101561033e578382906000526020600020906002020160405180604001604052908160008201805461021b90610efc565b80601f016020809104026020016040519081016040528092919081815260200182805461024790610efc565b80156102945780601f1061026957610100808354040283529160200191610294565b820191906000526020600020905b81548152906001019060200180831161027757829003601f168201915b505050505081526020016001820180546102ad90610efc565b80601f01602080910402602001604051908101604052809291908181526020018280546102d990610efc565b80156103265780601f106102fb57610100808354040283529160200191610326565b820191906000526020600020905b81548152906001019060200180831161030957829003601f168201915b505050505081525050815260200190600101906101e8565b50505050905090565b600260205280600052604060002060009150905080600001805461036a90610efc565b80601f016020809104026020016040519081016040528092919081815260200182805461039690610efc565b80156103e35780601f106103b8576101008083540402835291602001916103e3565b820191906000526020600020905b8154815290600101906020018083116103c657829003601f168201915b5050505050908060010180546103f890610efc565b80601f016020809104026020016040519081016040528092919081815260200182805461042490610efc565b80156104715780601f1061044657610100808354040283529160200191610471565b820191906000526020600020905b81548152906001019060200180831161045457829003601f168201915b5050505050905082565b6004818154811061048b57600080fd5b90600052602060002090600202016000915090508060000180546104ae90610efc565b80601f01602080910402602001604051908101604052809291908181526020018280546104da90610efc565b80156105275780601f106104fc57610100808354040283529160200191610527565b820191906000526020600020905b81548152906001019060200180831161050a57829003601f168201915b50505050509080600101805461053c90610efc565b80601f016020809104026020016040519081016040528092919081815260200182805461056890610efc565b80156105b55780601f1061058a576101008083540402835291602001916105b5565b820191906000526020600020905b81548152906001019060200180831161059857829003601f168201915b5050505050905082565b60015481565b60008054906101000a900473ffffffffffffffffffffffffffffffffffffffff1681565b6003602052816000526040600020818154811061060557600080fd5b906000526020600020016000915091509054906101000a900473ffffffffffffffffffffffffffffffffffffffff1681565b600080600260003373ffffffffffffffffffffffffffffffffffffffff1673ffffffffffffffffffffffffffffffffffffffff1681526020019081526020016000209050600081600101805461068c90610efc565b80601f01602080910402602001604051908101604052809291908181526020018280546106b890610efc565b80156107055780601f106106da57610100808354040283529160200191610705565b820191906000526020600020905b8154815290600101906020018083116106e857829003601f168201915b505050505090506000815114156107d3578382600001908051906020019061072e929190610883565b5084826001019080519060200190610747929190610883565b506004829080600181540180825580915050600190039060005260206000209060020201600090919091909150600082018160000190805461078890610efc565b610793929190610909565b5060018201816001019080546107a890610efc565b6107b3929190610909565b505050600180546107c49190610e1c565b600181905550600092506107d8565b600192505b505092915050565b600360008273ffffffffffffffffffffffffffffffffffffffff1673ffffffffffffffffffffffffffffffffffffffff168152602001908152602001600020339080600181540180825580915050600190039060005260206000200160009091909190916101000a81548173ffffffffffffffffffffffffffffffffffffffff021916908373ffffffffffffffffffffffffffffffffffffffff16021790555050565b82805461088f90610efc565b90600052602060002090601f0160209004810192826108b157600085556108f8565b82601f106108ca57805160ff19168380011785556108f8565b828001600101855582156108f8579182015b828111156108f75782518255916020019190600101906108dc565b5b5090506109059190610996565b5090565b82805461091590610efc565b90600052602060002090601f0160209004810192826109375760008555610985565b82601f106109485780548555610985565b8280016001018555821561098557600052602060002091601f016020900482015b82811115610984578254825591600101919060010190610969565b5b5090506109929190610996565b5090565b5b808211156109af576000816000905550600101610997565b5090565b60006109c66109c184610d86565b610d55565b9050828152602081018484840111156109de57600080fd5b6109e9848285610eba565b509392505050565b600081359050610a0081610fcc565b92915050565b600082601f830112610a1757600080fd5b8135610a278482602086016109b3565b91505092915050565b600081359050610a3f81610fe3565b92915050565b600060208284031215610a5757600080fd5b6000610a65848285016109f1565b91505092915050565b60008060408385031215610a8157600080fd5b6000610a8f858286016109f1565b9250506020610aa085828601610a30565b9150509250929050565b60008060408385031215610abd57600080fd5b600083013567ffffffffffffffff811115610ad757600080fd5b610ae385828601610a06565b925050602083013567ffffffffffffffff811115610b0057600080fd5b610b0c85828601610a06565b9150509250929050565b600060208284031215610b2857600080fd5b6000610b3684828501610a30565b91505092915050565b6000610b4b8383610c58565b905092915050565b610b5c81610e72565b82525050565b6000610b6d82610dc6565b610b778185610de9565b935083602082028501610b8985610db6565b8060005b85811015610bc55784840389528151610ba68582610b3f565b9450610bb183610ddc565b925060208a01995050600181019050610b8d565b50829750879550505050505092915050565b610be081610e84565b82525050565b6000610bf182610dd1565b610bfb8185610dfa565b9350610c0b818560208601610ec9565b610c1481610fbb565b840191505092915050565b6000610c2a82610dd1565b610c348185610e0b565b9350610c44818560208601610ec9565b610c4d81610fbb565b840191505092915050565b60006040830160008301518482036000860152610c758282610be6565b91505060208301518482036020860152610c8f8282610be6565b9150508091505092915050565b610ca581610eb0565b82525050565b6000602082019050610cc06000830184610b53565b92915050565b60006020820190508181036000830152610ce08184610b62565b905092915050565b6000602082019050610cfd6000830184610bd7565b92915050565b60006040820190508181036000830152610d1d8185610c1f565b90508181036020830152610d318184610c1f565b90509392505050565b6000602082019050610d4f6000830184610c9c565b92915050565b6000604051905081810181811067ffffffffffffffff82111715610d7c57610d7b610f8c565b5b8060405250919050565b600067ffffffffffffffff821115610da157610da0610f8c565b5b601f19601f8301169050602081019050919050565b6000819050602082019050919050565b600081519050919050565b600081519050919050565b6000602082019050919050565b600082825260208201905092915050565b600082825260208201905092915050565b600082825260208201905092915050565b6000610e2782610eb0565b9150610e3283610eb0565b9250827fffffffffffffffffffffffffffffffffffffffffffffffffffffffffffffffff03821115610e6757610e66610f2e565b5b828201905092915050565b6000610e7d82610e90565b9050919050565b60008115159050919050565b600073ffffffffffffffffffffffffffffffffffffffff82169050919050565b6000819050919050565b82818337600083830152505050565b60005b83811015610ee7578082015181840152602081019050610ecc565b83811115610ef6576000848401525b50505050565b60006002820490506001821680610f1457607f821691505b60208210811415610f2857610f27610f5d565b5b50919050565b7f4e487b7100000000000000000000000000000000000000000000000000000000600052601160045260246000fd5b7f4e487b7100000000000000000000000000000000000000000000000000000000600052602260045260246000fd5b7f4e487b7100000000000000000000000000000000000000000000000000000000600052604160045260246000fd5b6000601f19601f8301169050919050565b610fd581610e72565b8114610fe057600080fd5b50565b610fec81610eb0565b8114610ff757600080fd5b5056fea264697066735822122018d34b52b52089a209380f6332bc1ce6628fe9caef1595cfc843950920487e0c64736f6c63430008000033",
  "immutableReferences": {},
  "source": "pragma solidity ^0.8.0;\n\n\ncontract Dating {\n    address public owner; // For fun\n    uint public numberOfUsers;\n    struct Person {\n        string decentralizedFileStorageLink;\n        string name;\n    }\n    mapping(address => Person) public people;\n    mapping(address => address[]) public matchingMap;\n    Person[] public users;\n\n    constructor() {\n        owner = msg.sender;\n        // Initial owners of the contract to make this easier\n        Person storage ownerPerson = people[msg.sender];\n        ownerPerson.decentralizedFileStorageLink = \"ipfs.com\";\n        ownerPerson.name = \"Alice\";\n        users.push(ownerPerson);\n        numberOfUsers = numberOfUsers + 1;\n    }\n    function createProfile(string memory name, string memory decentralizedFileStorageLink) public returns (bool _exists) {\n        // @TODO: Add validation that the person does not already exist.\n        Person storage person = people[msg.sender];\n        bytes memory tempEmptyStringTest = bytes(person.name); // Uses memory\n        if (tempEmptyStringTest.length == 0) {\n            person.decentralizedFileStorageLink = decentralizedFileStorageLink;\n            person.name = name;\n            users.push(person);\n            numberOfUsers = numberOfUsers + 1;\n            _exists = false;\n        } else {\n            _exists = true;\n        }\n    }\n    function like(address personLiked) public {\n        matchingMap[personLiked].push(msg.sender);\n    }\n    function getUsers() public view returns (Person[] memory _users) {\n        _users = users;\n    }\n}",
  "sourcePath": "/Users/vikram.baid/dating-on-the-blockchain/contracts/contracts/Dating.sol",
  "compiler": {
    "name": "solc",
    "version": "0.8.0+commit.c7dfd78e.Emscripten.clang"
  },
  "schemaVersion": "3.4.7",
  "updatedAt": "2022-06-25T14:17:01.043Z",
  "networkType": "ethereum",
  "devdoc": {
    "kind": "dev",
    "methods": {},
    "version": 1
  },
  "userdoc": {
    "kind": "user",
    "methods": {},
    "version": 1
  }
}