{
  "contractName": "Dating",
  "abi": [
    {
      "inputs": [],
      "stateMutability": "nonpayable",
      "type": "constructor"
    },
    {
      "inputs": [
        {
          "internalType": "address",
          "name": "",
          "type": "address"
        }
      ],
      "name": "likeMap",
      "outputs": [
        {
          "internalType": "uint256",
          "name": "personsLength",
          "type": "uint256"
        }
      ],
      "stateMutability": "view",
      "type": "function",
      "constant": true
    },
    {
      "inputs": [],
      "name": "numberOfUsers",
      "outputs": [
        {
          "internalType": "uint256",
          "name": "",
          "type": "uint256"
        }
      ],
      "stateMutability": "view",
      "type": "function",
      "constant": true
    },
    {
      "inputs": [],
      "name": "owner",
      "outputs": [
        {
          "internalType": "address",
          "name": "",
          "type": "address"
        }
      ],
      "stateMutability": "view",
      "type": "function",
      "constant": true
    },
    {
      "inputs": [
        {
          "internalType": "address",
          "name": "",
          "type": "address"
        }
      ],
      "name": "people",
      "outputs": [
        {
          "internalType": "string",
          "name": "decentralizedFileStorageLink",
          "type": "string"
        },
        {
          "internalType": "string",
          "name": "name",
          "type": "string"
        },
        {
          "internalType": "address",
          "name": "personAddress",
          "type": "address"
        }
      ],
      "stateMutability": "view",
      "type": "function",
      "constant": true
    },
    {
      "inputs": [
        {
          "internalType": "address",
          "name": "",
          "type": "address"
        }
      ],
      "name": "unlikeMap",
      "outputs": [
        {
          "internalType": "uint256",
          "name": "personsLength",
          "type": "uint256"
        }
      ],
      "stateMutability": "view",
      "type": "function",
      "constant": true
    },
    {
      "inputs": [
        {
          "internalType": "uint256",
          "name": "",
          "type": "uint256"
        }
      ],
      "name": "users",
      "outputs": [
        {
          "internalType": "string",
          "name": "decentralizedFileStorageLink",
          "type": "string"
        },
        {
          "internalType": "string",
          "name": "name",
          "type": "string"
        },
        {
          "internalType": "address",
          "name": "personAddress",
          "type": "address"
        }
      ],
      "stateMutability": "view",
      "type": "function",
      "constant": true
    },
    {
      "inputs": [
        {
          "internalType": "string",
          "name": "name",
          "type": "string"
        },
        {
          "internalType": "string",
          "name": "decentralizedFileStorageLink",
          "type": "string"
        }
      ],
      "name": "createProfile",
      "outputs": [
        {
          "internalType": "bool",
          "name": "_exists",
          "type": "bool"
        }
      ],
      "stateMutability": "nonpayable",
      "type": "function"
    },
    {
      "inputs": [
        {
          "internalType": "address",
          "name": "personLiked",
          "type": "address"
        }
      ],
      "name": "like",
      "outputs": [],
      "stateMutability": "nonpayable",
      "type": "function"
    },
    {
      "inputs": [
        {
          "internalType": "address",
          "name": "personUnliked",
          "type": "address"
        }
      ],
      "name": "unlike",
      "outputs": [
        {
          "internalType": "bool",
          "name": "_exists",
          "type": "bool"
        }
      ],
      "stateMutability": "nonpayable",
      "type": "function"
    },
    {
      "inputs": [],
      "name": "getUsers",
      "outputs": [
        {
          "components": [
            {
              "internalType": "string",
              "name": "decentralizedFileStorageLink",
              "type": "string"
            },
            {
              "internalType": "string",
              "name": "name",
              "type": "string"
            },
            {
              "internalType": "address",
              "name": "personAddress",
              "type": "address"
            }
          ],
          "internalType": "struct Dating.Person[]",
          "name": "_users",
          "type": "tuple[]"
        }
      ],
      "stateMutability": "view",
      "type": "function",
      "constant": true
    },
    {
      "inputs": [],
      "name": "exists",
      "outputs": [
        {
          "internalType": "bool",
          "name": "_exists",
          "type": "bool"
        }
      ],
      "stateMutability": "view",
      "type": "function",
      "constant": true
    },
    {
      "inputs": [
        {
          "internalType": "address",
          "name": "personLiked",
          "type": "address"
        }
      ],
      "name": "matched",
      "outputs": [
        {
          "internalType": "bool",
          "name": "_matched",
          "type": "bool"
        }
      ],
      "stateMutability": "view",
      "type": "function",
      "constant": true
    }
  ],
  "bytecode": "0x60806040523480156200001157600080fd5b50336000806101000a81548173ffffffffffffffffffffffffffffffffffffffff021916908373ffffffffffffffffffffffffffffffffffffffff160217905550600060405180606001604052806040518060400160405280600781526020017f697066733a2f2f0000000000000000000000000000000000000000000000000081525081526020016040518060400160405280600581526020017f416c6963650000000000000000000000000000000000000000000000000000008152508152602001600173ffffffffffffffffffffffffffffffffffffffff168152509050600060405180606001604052806040518060400160405280600781526020017f697066733a2f2f0000000000000000000000000000000000000000000000000081525081526020016040518060400160405280600381526020017f426f6200000000000000000000000000000000000000000000000000000000008152508152602001600273ffffffffffffffffffffffffffffffffffffffff168152509050600060405180606001604052806040518060400160405280600781526020017f697066733a2f2f0000000000000000000000000000000000000000000000000081525081526020016040518060400160405280600781526020017f436861726c6965000000000000000000000000000000000000000000000000008152508152602001600373ffffffffffffffffffffffffffffffffffffffff168152509050600583908060018154018082558091505060019003906000526020600020906003020160009091909190915060008201518160000190805190602001906200027c929190620006b7565b5060208201518160010190805190602001906200029b929190620006b7565b5060408201518160020160006101000a81548173ffffffffffffffffffffffffffffffffffffffff021916908373ffffffffffffffffffffffffffffffffffffffff1602179055505050600582908060018154018082558091505060019003906000526020600020906003020160009091909190915060008201518160000190805190602001906200032f929190620006b7565b5060208201518160010190805190602001906200034e929190620006b7565b5060408201518160020160006101000a81548173ffffffffffffffffffffffffffffffffffffffff021916908373ffffffffffffffffffffffffffffffffffffffff160217905550505060058190806001815401808255809150506001900390600052602060002090600302016000909190919091506000820151816000019080519060200190620003e2929190620006b7565b50602082015181600101908051906020019062000401929190620006b7565b5060408201518160020160006101000a81548173ffffffffffffffffffffffffffffffffffffffff021916908373ffffffffffffffffffffffffffffffffffffffff16021790555050508260026000600173ffffffffffffffffffffffffffffffffffffffff1673ffffffffffffffffffffffffffffffffffffffff1681526020019081526020016000206000820151816000019080519060200190620004aa929190620006b7565b506020820151816001019080519060200190620004c9929190620006b7565b5060408201518160020160006101000a81548173ffffffffffffffffffffffffffffffffffffffff021916908373ffffffffffffffffffffffffffffffffffffffff1602179055509050508160026000600273ffffffffffffffffffffffffffffffffffffffff1673ffffffffffffffffffffffffffffffffffffffff168152602001908152602001600020600082015181600001908051906020019062000573929190620006b7565b50602082015181600101908051906020019062000592929190620006b7565b5060408201518160020160006101000a81548173ffffffffffffffffffffffffffffffffffffffff021916908373ffffffffffffffffffffffffffffffffffffffff1602179055509050508060026000600373ffffffffffffffffffffffffffffffffffffffff1673ffffffffffffffffffffffffffffffffffffffff16815260200190815260200160002060008201518160000190805190602001906200063c929190620006b7565b5060208201518160010190805190602001906200065b929190620006b7565b5060408201518160020160006101000a81548173ffffffffffffffffffffffffffffffffffffffff021916908373ffffffffffffffffffffffffffffffffffffffff1602179055509050506003600181905550505050620007cc565b828054620006c59062000767565b90600052602060002090601f016020900481019282620006e9576000855562000735565b82601f106200070457805160ff191683800117855562000735565b8280016001018555821562000735579182015b828111156200073457825182559160200191906001019062000717565b5b50905062000744919062000748565b5090565b5b808211156200076357600081600090555060010162000749565b5090565b600060028204905060018216806200078057607f821691505b602082108114156200079757620007966200079d565b5b50919050565b7f4e487b7100000000000000000000000000000000000000000000000000000000600052602260045260246000fd5b61184b80620007dc6000396000f3fe608060405234801561001057600080fd5b50600436106100b35760003560e01c80638da5cb5b116100715780638da5cb5b146101a657806399133c9f146101c457806399a4d43c146101f4578063ba1feb8a14610224578063d845b13114610254578063e465c46514610284576100b3565b8062ce8e3e146100b857806307de9735146100d6578063138ba90014610108578063267c4ae414610138578063365b98b21461015657806375ce46a714610188575b600080fd5b6100c06102a0565b6040516100cd919061146a565b60405180910390f35b6100f060048036038101906100eb91906111c3565b610479565b6040516100ff939291906114a7565b60405180910390f35b610122600480360381019061011d91906111c3565b6105d3565b60405161012f919061150c565b60405180910390f35b6101406105f1565b60405161014d919061148c565b60405180910390f35b610170600480360381019061016b9190611258565b6106e3565b60405161017f939291906114a7565b60405180910390f35b61019061084d565b60405161019d919061150c565b60405180910390f35b6101ae610853565b6040516101bb919061144f565b60405180910390f35b6101de60048036038101906101d991906111c3565b610877565b6040516101eb919061148c565b60405180910390f35b61020e600480360381019061020991906111c3565b61099c565b60405161021b919061150c565b60405180910390f35b61023e600480360381019061023991906111ec565b6109ba565b60405161024b919061148c565b60405180910390f35b61026e600480360381019061026991906111c3565b610c0d565b60405161027b919061148c565b60405180910390f35b61029e600480360381019061029991906111c3565b610df2565b005b60606005805480602002602001604051908101604052809291908181526020016000905b8282101561047057838290600052602060002090600302016040518060600160405290816000820180546102f7906116ce565b80601f0160208091040260200160405190810160405280929190818152602001828054610323906116ce565b80156103705780601f1061034557610100808354040283529160200191610370565b820191906000526020600020905b81548152906001019060200180831161035357829003601f168201915b50505050508152602001600182018054610389906116ce565b80601f01602080910402602001604051908101604052809291908181526020018280546103b5906116ce565b80156104025780601f106103d757610100808354040283529160200191610402565b820191906000526020600020905b8154815290600101906020018083116103e557829003601f168201915b505050505081526020016002820160009054906101000a900473ffffffffffffffffffffffffffffffffffffffff1673ffffffffffffffffffffffffffffffffffffffff1673ffffffffffffffffffffffffffffffffffffffff1681525050815260200190600101906102c4565b50505050905090565b600260205280600052604060002060009150905080600001805461049c906116ce565b80601f01602080910402602001604051908101604052809291908181526020018280546104c8906116ce565b80156105155780601f106104ea57610100808354040283529160200191610515565b820191906000526020600020905b8154815290600101906020018083116104f857829003601f168201915b50505050509080600101805461052a906116ce565b80601f0160208091040260200160405190810160405280929190818152602001828054610556906116ce565b80156105a35780601f10610578576101008083540402835291602001916105a3565b820191906000526020600020905b81548152906001019060200180831161058657829003601f168201915b5050505050908060020160009054906101000a900473ffffffffffffffffffffffffffffffffffffffff16905083565b60036020528060005260406000206000915090508060010154905081565b600080600260003373ffffffffffffffffffffffffffffffffffffffff1673ffffffffffffffffffffffffffffffffffffffff16815260200190815260200160002090506000816001018054610646906116ce565b80601f0160208091040260200160405190810160405280929190818152602001828054610672906116ce565b80156106bf5780601f10610694576101008083540402835291602001916106bf565b820191906000526020600020905b8154815290600101906020018083116106a257829003601f168201915b505050505090506000815114156106d957600092506106de565b600192505b505090565b600581815481106106f357600080fd5b9060005260206000209060030201600091509050806000018054610716906116ce565b80601f0160208091040260200160405190810160405280929190818152602001828054610742906116ce565b801561078f5780601f106107645761010080835404028352916020019161078f565b820191906000526020600020905b81548152906001019060200180831161077257829003601f168201915b5050505050908060010180546107a4906116ce565b80601f01602080910402602001604051908101604052809291908181526020018280546107d0906116ce565b801561081d5780601f106107f25761010080835404028352916020019161081d565b820191906000526020600020905b81548152906001019060200180831161080057829003601f168201915b5050505050908060020160009054906101000a900473ffffffffffffffffffffffffffffffffffffffff16905083565b60015481565b60008054906101000a900473ffffffffffffffffffffffffffffffffffffffff1681565b600080600360008473ffffffffffffffffffffffffffffffffffffffff1673ffffffffffffffffffffffffffffffffffffffff16815260200190815260200160002090506000816001015411156109965760005b8160010154811015610994573373ffffffffffffffffffffffffffffffffffffffff1682600001828154811061092a577f4e487b7100000000000000000000000000000000000000000000000000000000600052603260045260246000fd5b906000526020600020906003020160020160009054906101000a900473ffffffffffffffffffffffffffffffffffffffff1673ffffffffffffffffffffffffffffffffffffffff1614156109815760019250610994565b808061098c90611700565b9150506108cb565b505b50919050565b60046020528060005260406000206000915090508060010154905081565b600080600260003373ffffffffffffffffffffffffffffffffffffffff1673ffffffffffffffffffffffffffffffffffffffff16815260200190815260200160002090506000816001018054610a0f906116ce565b80601f0160208091040260200160405190810160405280929190818152602001828054610a3b906116ce565b8015610a885780601f10610a5d57610100808354040283529160200191610a88565b820191906000526020600020905b815481529060010190602001808311610a6b57829003601f168201915b50505050509050600081511415610c005783826000019080519060200190610ab1929190611001565b5084826001019080519060200190610aca929190611001565b50338260020160006101000a81548173ffffffffffffffffffffffffffffffffffffffff021916908373ffffffffffffffffffffffffffffffffffffffff16021790555060058290806001815401808255809150506001900390600052602060002090600302016000909190919091506000820181600001908054610b4e906116ce565b610b59929190611087565b506001820181600101908054610b6e906116ce565b610b79929190611087565b506002820160009054906101000a900473ffffffffffffffffffffffffffffffffffffffff168160020160006101000a81548173ffffffffffffffffffffffffffffffffffffffff021916908373ffffffffffffffffffffffffffffffffffffffff160217905550505060018054610bf191906115ee565b60018190555060009250610c05565b600192505b505092915050565b600080600260008473ffffffffffffffffffffffffffffffffffffffff1673ffffffffffffffffffffffffffffffffffffffff1681526020019081526020016000209050600073ffffffffffffffffffffffffffffffffffffffff168160020160009054906101000a900473ffffffffffffffffffffffffffffffffffffffff1673ffffffffffffffffffffffffffffffffffffffff161415610cb35760009150610dec565b6000600460003373ffffffffffffffffffffffffffffffffffffffff1673ffffffffffffffffffffffffffffffffffffffff1681526020019081526020016000209050806000018290806001815401808255809150506001900390600052602060002090600302016000909190919091506000820181600001908054610d38906116ce565b610d43929190611087565b506001820181600101908054610d58906116ce565b610d63929190611087565b506002820160009054906101000a900473ffffffffffffffffffffffffffffffffffffffff168160020160006101000a81548173ffffffffffffffffffffffffffffffffffffffff021916908373ffffffffffffffffffffffffffffffffffffffff160217905550505060018160010154610dde91906115ee565b816001018190555060019250505b50919050565b6000600260008373ffffffffffffffffffffffffffffffffffffffff1673ffffffffffffffffffffffffffffffffffffffff1681526020019081526020016000209050600073ffffffffffffffffffffffffffffffffffffffff168160020160009054906101000a900473ffffffffffffffffffffffffffffffffffffffff1673ffffffffffffffffffffffffffffffffffffffff161415610ec9576040517f08c379a0000000000000000000000000000000000000000000000000000000008152600401610ec0906114ec565b60405180910390fd5b6000600360003373ffffffffffffffffffffffffffffffffffffffff1673ffffffffffffffffffffffffffffffffffffffff1681526020019081526020016000209050806000018290806001815401808255809150506001900390600052602060002090600302016000909190919091506000820181600001908054610f4e906116ce565b610f59929190611087565b506001820181600101908054610f6e906116ce565b610f79929190611087565b506002820160009054906101000a900473ffffffffffffffffffffffffffffffffffffffff168160020160006101000a81548173ffffffffffffffffffffffffffffffffffffffff021916908373ffffffffffffffffffffffffffffffffffffffff160217905550505060018160010154610ff491906115ee565b8160010181905550505050565b82805461100d906116ce565b90600052602060002090601f01602090048101928261102f5760008555611076565b82601f1061104857805160ff1916838001178555611076565b82800160010185558215611076579182015b8281111561107557825182559160200191906001019061105a565b5b5090506110839190611114565b5090565b828054611093906116ce565b90600052602060002090601f0160209004810192826110b55760008555611103565b82601f106110c65780548555611103565b8280016001018555821561110357600052602060002091601f016020900482015b828111156111025782548255916001019190600101906110e7565b5b5090506111109190611114565b5090565b5b8082111561112d576000816000905550600101611115565b5090565b600061114461113f84611558565b611527565b90508281526020810184848401111561115c57600080fd5b61116784828561168c565b509392505050565b60008135905061117e816117e7565b92915050565b600082601f83011261119557600080fd5b81356111a5848260208601611131565b91505092915050565b6000813590506111bd816117fe565b92915050565b6000602082840312156111d557600080fd5b60006111e38482850161116f565b91505092915050565b600080604083850312156111ff57600080fd5b600083013567ffffffffffffffff81111561121957600080fd5b61122585828601611184565b925050602083013567ffffffffffffffff81111561124257600080fd5b61124e85828601611184565b9150509250929050565b60006020828403121561126a57600080fd5b6000611278848285016111ae565b91505092915050565b600061128d83836113e9565b905092915050565b61129e81611644565b82525050565b6112ad81611644565b82525050565b60006112be82611598565b6112c881856115bb565b9350836020820285016112da85611588565b8060005b8581101561131657848403895281516112f78582611281565b9450611302836115ae565b925060208a019950506001810190506112de565b50829750879550505050505092915050565b61133181611656565b82525050565b6000611342826115a3565b61134c81856115cc565b935061135c81856020860161169b565b611365816117d6565b840191505092915050565b600061137b826115a3565b61138581856115dd565b935061139581856020860161169b565b61139e816117d6565b840191505092915050565b60006113b6601b836115dd565b91507f506572736f6e204c696b656420446f6573204e6f7420457869737400000000006000830152602082019050919050565b600060608301600083015184820360008601526114068282611337565b915050602083015184820360208601526114208282611337565b91505060408301516114356040860182611295565b508091505092915050565b61144981611682565b82525050565b600060208201905061146460008301846112a4565b92915050565b6000602082019050818103600083015261148481846112b3565b905092915050565b60006020820190506114a16000830184611328565b92915050565b600060608201905081810360008301526114c18186611370565b905081810360208301526114d58185611370565b90506114e460408301846112a4565b949350505050565b60006020820190508181036000830152611505816113a9565b9050919050565b60006020820190506115216000830184611440565b92915050565b6000604051905081810181811067ffffffffffffffff8211171561154e5761154d6117a7565b5b8060405250919050565b600067ffffffffffffffff821115611573576115726117a7565b5b601f19601f8301169050602081019050919050565b6000819050602082019050919050565b600081519050919050565b600081519050919050565b6000602082019050919050565b600082825260208201905092915050565b600082825260208201905092915050565b600082825260208201905092915050565b60006115f982611682565b915061160483611682565b9250827fffffffffffffffffffffffffffffffffffffffffffffffffffffffffffffffff0382111561163957611638611749565b5b828201905092915050565b600061164f82611662565b9050919050565b60008115159050919050565b600073ffffffffffffffffffffffffffffffffffffffff82169050919050565b6000819050919050565b82818337600083830152505050565b60005b838110156116b957808201518184015260208101905061169e565b838111156116c8576000848401525b50505050565b600060028204905060018216806116e657607f821691505b602082108114156116fa576116f9611778565b5b50919050565b600061170b82611682565b91507fffffffffffffffffffffffffffffffffffffffffffffffffffffffffffffffff82141561173e5761173d611749565b5b600182019050919050565b7f4e487b7100000000000000000000000000000000000000000000000000000000600052601160045260246000fd5b7f4e487b7100000000000000000000000000000000000000000000000000000000600052602260045260246000fd5b7f4e487b7100000000000000000000000000000000000000000000000000000000600052604160045260246000fd5b6000601f19601f8301169050919050565b6117f081611644565b81146117fb57600080fd5b50565b61180781611682565b811461181257600080fd5b5056fea2646970667358221220ec1cd2bce719c184b5f7203b9a31a9d11d61e566233f3df1bc85ff782ec8e08564736f6c63430008000033",
  "immutableReferences": {},
  "source": "pragma solidity ^0.8.0;\n\n\ncontract Dating {\n    address public owner; // For fun\n    uint public numberOfUsers;\n    struct Person {\n        string decentralizedFileStorageLink;\n        string name;\n        address personAddress;\n    }\n    struct ArrayOfPeople {\n        Person[] persons;\n        uint personsLength;\n    }\n    mapping(address => Person) public people;\n    // Unfortuantely in solidity you can't look through an array. So you need to know the length \n    // of everytone you've liked so you can loop through all their information\n    mapping(address => ArrayOfPeople) public likeMap;\n    // Unfortuantely in solidity you can't look through an array. So you need to know the length \n    // of everytone you've liked so you can loop through all their information\n    mapping(address => ArrayOfPeople) public unlikeMap;\n    Person[] public users;\n\n    constructor() {\n        owner = msg.sender;\n        // Initial owners of the contract to make this easier\n        // Some default users\n        Person memory alice = Person(\"ipfs://\", \"Alice\", address(1));\n        Person memory bob = Person(\"ipfs://\", \"Bob\", address(2));\n        Person memory charlie = Person(\"ipfs://\", \"Charlie\", address(3));\n        users.push(alice);\n        users.push(bob);\n        users.push(charlie);\n        people[address(1)] = alice;\n        people[address(2)] = bob;\n        people[address(3)] = charlie;\n\n        numberOfUsers = 3;\n    }\n    function createProfile(string memory name, string memory decentralizedFileStorageLink) public returns (bool _exists) {\n        // @TODO: Add validation that the person does not already exist.\n        Person storage person = people[msg.sender];\n        bytes memory tempEmptyStringTest = bytes(person.name); // Uses memory\n        if (tempEmptyStringTest.length == 0) {\n            person.decentralizedFileStorageLink = decentralizedFileStorageLink;\n            person.name = name;\n            person.personAddress = msg.sender;\n            users.push(person);\n            numberOfUsers = numberOfUsers + 1;\n            _exists = false;\n        } else {\n            _exists = true;\n        }\n    }\n    function like(address personLiked) public {\n        Person storage existingPerson = people[personLiked];\n        require(existingPerson.personAddress != address(0), \"Person Liked Does Not Exist\");\n        // Does not exist\n        ArrayOfPeople storage arrayOfPeople = likeMap[msg.sender];\n        arrayOfPeople.persons.push(existingPerson);\n        arrayOfPeople.personsLength = arrayOfPeople.personsLength + 1;\n\n    }\n    function unlike(address personUnliked) public returns (bool _exists) {\n        Person storage existingPerson = people[personUnliked];\n        // Does not exist\n        if (existingPerson.personAddress == address(0)) {\n            _exists = false;\n        } else {\n            ArrayOfPeople storage arrayOfPeople = unlikeMap[msg.sender];\n            arrayOfPeople.persons.push(existingPerson);\n            arrayOfPeople.personsLength = arrayOfPeople.personsLength + 1;\n            _exists = true;\n        }\n    }\n    function getUsers() public view returns (Person[] memory _users) {\n        _users = users;\n    }\n    function exists() public view returns (bool _exists) {\n        Person storage person = people[msg.sender];\n        bytes memory tempEmptyStringTest = bytes(person.name); // Uses memory\n        if (tempEmptyStringTest.length == 0) {\n            _exists = false;\n        } else {\n            _exists = true;\n        }\n    }\n    // Keeping this generic so its easy to test matches\n    function matched(address personLiked) public view returns (bool _matched) {\n       _matched = false;\n       ArrayOfPeople storage likedPerson = likeMap[personLiked];\n        if (likedPerson.personsLength > 0) {\n            for (uint i=0; i<likedPerson.personsLength; i++) {\n                if (likedPerson.persons[i].personAddress == msg.sender) {\n                    _matched = true;\n                    break;\n                }\n            }\n        }\n    }\n}",
  "sourcePath": "/Users/vikram.baid/dating-on-the-blockchain/contracts/contracts/Dating.sol",
  "compiler": {
    "name": "solc",
    "version": "0.8.0+commit.c7dfd78e.Emscripten.clang"
  },
  "schemaVersion": "3.4.7",
  "updatedAt": "2022-06-25T18:02:36.068Z",
  "networkType": "ethereum",
  "devdoc": {
    "kind": "dev",
    "methods": {},
    "version": 1
  },
  "userdoc": {
    "kind": "user",
    "methods": {},
    "version": 1
  }
}